:100000000C944C000C946B000C946B000C946B00E3
:100010000C946B000C946B000C946B000C946B00B4
:100020000C946B000C946B000C946B000C946B00A4
:100030000C946B000C946B000C946B000C946B0094
:100040000C946B000C946B000C9442170C946B0096
:100050000C946B000C946B000C946B000C946B0074
:100060000C946B000C946B000C946B000C946B0064
:100070000C946B000C946B000C946B000C946B0054
:100080000C946B000C946B000C946B006364696EB1
:100090006F70737578585B0011241FBECFEFD0E1ED
:1000A000DEBFCDBF11E0A0E0B1E0E4E7FCE300E09B
:1000B0000BBF02C007900D92A23FB107D9F716E01F
:1000C000A2EFB1E001C01D92A036B107E1F70E9496
:1000D0006D000C94381E0C9400000E94ED160E94D6
:1000E00029170E94770078940E94F816FDCF87EFB9
:1000F00091E060E071E040E00E94DF1288E294E06D
:1001000061E071E04AE00E943B0F892B71F488E2C4
:1001100094E06DE071E04BE050E026E234E00E94B4
:10012000F60788E294E00E944C0C0895FC012381BC
:1001300030E040E050E0542F432F322F22278281BD
:1001400090E0A0E0B0E0282B392B4A2B5B2B542FFA
:10015000432F322F2227818190E0A0E0B0E0282BAE
:10016000392B4A2B5B2B542F432F322F2227808190
:1001700090E0A0E0B0E0282B392B4A2B5B2BB90193
:10018000CA010895CF93DF939C01FC014193BB27E3
:10019000A72F962F852FE9018983CB01AA27BB279B
:1001A0008183472F5527662777274283DF91CF9199
:1001B0000895EF92FF920F931F93FC01DB015B9672
:1001C0009C915B9780E05A962C915A9730E0822B55
:1001D000932B7C0100E010E08081833091F45596F0
:1001E0009C91559780E054962C9130E0822B932B74
:1001F000A0E0B0E0DC0199278827E82AF92A0A2B39
:100200001B2BB701C8011F910F91FF90EF9008952C
:10021000CF93DF93AC01DC01ED91FC913097E1F1DC
:10022000DF018D91813218F08A33D9F705C08A3306
:1002300019F020E030E032C02081822F80538A30D4
:1002400070F4CF010296A817B90749F4822F9927B5
:1002500087FD9095C09718161906CCF41DC0C9E10A
:10026000D1E099912191892F81568A3108F49052D9
:10027000822F81568A3108F42052992319F092175F
:1002800081F30AC0EA17FB0739F480E090E0FA0135
:10029000B183A0839C0102C02FEF3FEFC901DF9122
:1002A000CF9108950F931F93CF93DF93EC018B01B0
:1002B000009799F0E881F981309779F0808188235F
:1002C00061F02A813B81858196812817390729F4BD
:1002D00081810E94BA1480FF0DC080E090E029E087
:1002E00030E0F80191838083C901DF91CF911F91A4
:1002F0000F9108958881998120E030E0F2CFA0E04D
:10030000B0E0E5E8F1E00C94F017EC018B81882374
:10031000C9F13FE2C32ED12CCC0EDD1E2BA53CA58E
:100320004DA55EA58981B60101E010E00E94C515CA
:10033000892B19F021E030E027C01B82EBA4FCA43C
:100340000DA51EA52F89388D498D5A8D8F8D98A1A9
:10035000A9A1BAA147015801881A990AAA0ABB0A99
:1003600082169306A406B50668F48A81823051F499
:100370002E0D3F1D401F511F8981B60101E010E085
:100380000E94C51520E030E0C901CDB7DEB7ECE032
:100390000C940C18A0E0B0E0E0EDF1E00C94F21742
:1003A0005C016A017B01FC0183A594A5A5A5B6A506
:1003B000481759076A077B0719F4C0E0D0E01EC050
:1003C000C5010E947F01EC010097C1F4B501615D98
:1003D0007F4FF5018181A701960101E010E00E94A5
:1003E0007615892B31F0CC24CA94DC2C7601C1E03F
:1003F000D0E0F501C3A6D4A6E5A6F6A6CE01CDB7FA
:10040000DEB7EAE00C940E18A0E0B0E0EAE0F2E01B
:100410000C94F317FC017A018B01C081D181423029
:1004200051056105710508F4B3C08B899C89AD89BC
:10043000BE89481759076A077B0708F0A9C0888159
:10044000823009F45AC0833009F47CC0813009F04D
:100450009FC06A01D694C794C40ED51EA601452F2D
:100460005527469560E070E08F8D98A1A9A1BAA1AB
:10047000480F591F6A1F7B1FCE010E94CA01892B9A
:1004800009F08BC0F601F170EC0FFD1FB7A40894C2
:10049000C11CD11CA601452F5527469560E070E090
:1004A0008F8D98A1A9A1BAA1480F591F6A1F7B1F60
:1004B000CE010E94CA01892B09F06FC06B2D70E03C
:1004C0008FEF91E0C822D922CC0DDD1D9FA580E0E1
:1004D000682B792BC70181709070892B39F0B4E0BB
:1004E00076956795BA95E1F79B0129C09B0140E09D
:1004F00050E03F704070507054C0452F562F672F0A
:1005000077278F8D98A1A9A1BAA1480F591F6A1FFB
:100510007B1FCE010E94CA01892B09F03EC0EE0C60
:10052000FF1C001F111FC7019170FE01E80FF91F8A
:1005300030A920E087A590E0822B932B9C0140E01E
:1005400050E02FC0E7E07695679557954795EA9577
:10055000D1F78F8D98A1A9A1BAA1480F591F6A1F81
:100560007B1FCE010E94CA01892BB9F442E0EE0C38
:10057000FF1C001F111F4A95D1F7C70191708F967C
:100580008C0F9D1F0E9496009B01AC015F7009C0FB
:1005900021E030E040E050E004C02FEF3FEF4FEFAC
:1005A0005FEFB901CA01CDB7DEB7E9E00C940F18CF
:1005B000A0E0B0E0EEEDF2E00C94EA172C013A0175
:1005C0004B01FC01C081D1814030F0E05F07F0E2D7
:1005D0006F07F0E07F0708F0DAC0DB01CA018F7116
:1005E0009070A070B0700097A105B10509F0CFC060
:1005F000F20146875787608B718BE680F780008514
:100600001185E114F1040105110551F5888183304C
:1006100040F08BA19CA1ADA1BEA10097A105B105A1
:10062000E9F4A4019301F5E0569547953795279590
:10063000FA95D1F78F819885A0E0B0E028173907A7
:100640004A075B0708F0A3C08BA19CA1ADA1BEA186
:10065000F201868B978BA08FB18F70C07C018D01CA
:1006600089859A855C01CC24DD24E9E0AA0CBB1CB9
:10067000CC1CDD1CEA95D1F7120127C0C101B801DD
:10068000A7010E9404027B018C016F3FFFEF7F07EF
:10069000FFEF8F07FFEF9F0719F421E030E079C0EB
:1006A00082E0E816F1040105110508F470C08B8999
:1006B0009C89AD89BE89E816F9060A071B0708F070
:1006C00066C06A187B088C089D086A147B048C0439
:1006D0009D04A0F67EEFA72E7FEFB72E7FEFC72EEB
:1006E0007FEFD72EAE0CBF1CC01ED11E8B899C89FC
:1006F000AD89BE890297A109B109A816B906CA0633
:10070000DB0628F020E030E040E050E012C0298510
:100710003A8540E050E0C601B5010E94A9179B014F
:10072000AC018FA198A5A9A5BAA5280F391F4A1F0A
:100730005B1FF201268B378B408F518FF201E28ACB
:10074000F38A048B158B26893789408D518D2115AD
:10075000310541055105D9F0D401C30169E0B695D1
:10076000A795979587956A95D1F7820F931FA41F38
:10077000B51F868B978BA08FB18FC30191708F9619
:10078000C80FD91FD38FC28F20E030E002C022E013
:1007900030E0C901CDB7DEB7E2E10C940618A0E065
:1007A000B0E0E5EDF3E00C94EE17EC016A017B019B
:1007B00048015901423051056105710508F4E0C056
:1007C0008B899C89AD89BE89481759076A077B07C1
:1007D00008F0D6C08881823009F473C0833009F4F0
:1007E00092C0813009F0CCC08A0116950795040F9C
:1007F000151FA801452F5527469560E070E08F8DA5
:1008000098A1A9A1BAA1480F591F6A1F7B1FCE0149
:100810000E94CA013C01009709F0B5C0D801B1702F
:100820000F5F1F4F91E0C922DD24C114D10451F0A4
:10083000FE01EA0FFB1F87A58F70982D9295907F80
:10084000982B01C0982DAC0FBD1F9F969C9381E003
:100850008B83A801452F5527469560E070E08F8D6A
:1008600098A1A9A1BAA1480F591F6A1F7B1FCE01E9
:100870000E94CA013C01009709F085C05FEFE52E98
:1008800051E0F52EE022F122C114D10449F044E0F8
:10089000B694A794979487944A95D1F7E82D0BC006
:1008A000FE01EE0DFF1DE7A5E07FBB27AB2D9A2DC6
:1008B000892D8F70E82BEC0EFD1ED7019F96EC93CF
:1008C0005CC0452F562F672F77278F8D98A1A9A140
:1008D000BAA1480F591F6A1F7B1FCE010E94CA018F
:1008E0003C01009709F04FC0CC0CDD1CEE1CFF1C36
:1008F000F601F170DE01AE0FBF1F9F968C929F979D
:10090000FD0190AA3AC087E076956795579547957F
:100910008A95D1F78F8D98A1A9A1BAA1480F591F27
:100920006A1F7B1FCE010E94CA013C01009759F546
:100930008FEF9FEFAFEFBFE088229922AA22BB2260
:10094000B2E0CC0CDD1CEE1CFF1CBA95D1F7860181
:100950001170015D1F4F0C0F1D1FC8010E949600F2
:10096000607070708070907F862A972AA82AB92AB2
:10097000C801B501A4010E94C20081E08B8303C0BD
:10098000A2E06A2E712CC301CDB7DEB7EEE00C9465
:100990000A18A0E0B0E0EFECF4E00C94EC178C0146
:1009A0002A013B01FC01C081D1814115510561053E
:1009B000710599F48B849C84AD84BE848114910468
:1009C000A104B10451F18B899C89AD89BE89881637
:1009D0009906AA06BB0608F525C00E9404029B01E1
:1009E000AC01623071058105910508F4EEC06F3FDE
:1009F000FFEF7F07FFEF8F07FFEF9F0709F4F3C0BB
:100A00008B899C89AD89BE89281739074A075B07FE
:100A100008F4E9C05301420105C0B1E08B2E912CCE
:100A2000A12CB12C8F859889A989BA890097A10535
:100A3000B10509F4D4C084149504A604B70409F0E0
:100A40004AC0750164010894C11CD11CE11CF11C51
:100A50008B899C89AD89BE89C816D906EA06FB0632
:100A600028F0A2E0CA2ED12CE12CF12CC801B7014C
:100A7000A6010E9404029B01AC0161307105810551
:100A8000910509F4B0C02F3F8FEF38078FEF48076B
:100A90008FEF580709F4A7C021153105410551050D
:100AA000A9F02B853C854D855E85223031054105B9
:100AB000510588F08B899C89AD89BE892817390733
:100AC0004A075B0740F449015A0105C0C114D1042B
:100AD000E104F104E9F5750164010894C11CD11C1D
:100AE000E11CF11C8B899C89AD89BE89C816D90689
:100AF000EA06FB0660F0E2E08E169104A104B10460
:100B000008F46DC0F2E0CF2ED12CE12CF12CC801FD
:100B1000B701A6010E9404029B01AC016115710599
:100B200081059105A9F0613071058105910509F4F0
:100B30005AC06F3FFFEF7F07FFEF8F07FFEF9F0761
:100B400009F451C0C814D904EA04FB0431F647C0C3
:100B5000CE01B701A6010FEF1FEF2FEF3FEF0E946D
:100B6000CF03009781F5411451046104710449F0E9
:100B7000CE01B301A201970186010E94CF03009725
:100B800011F5CB86DC86ED86FE862F85388949896E
:100B90005A898B899C89AD89BE890297A109B109BF
:100BA00082179307A407B50740F02150304040401A
:100BB00050402F87388B498B5A8B8C8181608C8376
:100BC000A701960110C0019729F021E030E040E034
:100BD00050E009C02FEF3FEF4FEF5FEF04C020E080
:100BE00030E040E050E0B901CA01CDB7DEB7E0E146
:100BF0000C940818A6E0B0E0E0E0F6E00C94EA17E8
:100C00002C015B01DC016D907C9011971E96ED909C
:100C1000FD900D911C91519756962D913D914D91BE
:100C20005C915997211531054105510509F47AC1A7
:100C3000D801C7018096A11DB11D89839A83AB831A
:100C4000BC838030E0E09E07E0E2AE07E0E0BE0754
:100C500008F068C19170A070B0700097A105B1054F
:100C600009F04CC12F5F3F4F4F4F5F4FD201569657
:100C70002D933D934D935C9359975296ED90FD9033
:100C80000D911C915597E114F10401051105B9F47A
:100C900029813A814B815C8175E05695479537955E
:100CA00027957A95D1F7F30187819085A0E0B0E090
:100CB000281739074A075B0708F03FC01FC1F30137
:100CC000818592850197A0E0B0E029813A814B812E
:100CD0005C8169E056954795379527956A95D1F7D8
:100CE00082239323A423B5230097A105B10509F01E
:100CF00005C1C201B801A7010E9404026B017C0179
:100D0000623071058105910508F40FC16F3F2FEF27
:100D100072072FEF82072FEF920709F409C1F30141
:100D200083899489A589B689C816D906EA06FB067F
:100D300008F4A4C0A114B10441F4D20156961D9246
:100D40001D921D921C925997EDC0F2014289538960
:100D500064897589C2010E94C9046B017C01611517
:100D600071058105910519F427E030E0E3C0613099
:100D700071058105910509F4D8C06F3F2FEF720707
:100D80002FEF82072FEF920709F4D2C0C3010E9410
:100D90007F01892B09F0CCC09EEF892E9FEF992E01
:100DA0009FEFA92E9FEFB92E8C0C9D1CAE1CBF1C73
:100DB000F30183899489A589B6890297A109B109AC
:100DC00088169906AA06BB0620F0882499245401A7
:100DD00016C0D30119962D913C911A9740E050E02E
:100DE000C501B4010E94A9174B015C01F30187A161
:100DF00090A5A1A5B2A5880E991EAA1EBB1ED3015F
:100E00009B968D929D92AD92BC929E978FE2282EDA
:100E1000312C260C371CF10180E092E011920197F1
:100E2000E9F71E821D8205C0ED81FE813196FE83A9
:100E3000ED83D30119968D919C911A97ED81FE81D6
:100E4000E817F90780F49F0140E050E0280D391DB4
:100E50004A1D5B1D11968C91B10101E010E00E94CA
:100E6000C515892B09F3D30119968D919C911A9779
:100E7000ED81FE81E817F90709F05AC0D2015296B8
:100E8000CD92DD92ED92FC9255978EEF9FEFAFEFF2
:100E9000BFEF8C0D9D1DAE1DBF1D7C018D01F301AB
:100EA00083899489A589B6890297A109B109E816B1
:100EB000F9060A071B0728F020E030E040E050E088
:100EC00016C0D30119962D913C911A9740E050E03D
:100ED000C801B7010E94A9179B01AC01F30187A1CA
:100EE00090A5A1A5B2A5280F391F4A1F5B1FD201EB
:100EF00056962D933D934D935C93599789819A8192
:100F0000AB81BC81F20186879787A08BB18B8981E9
:100F10009A8191708F96680E791E738E628E20E092
:100F200030E008C024E030E005C022E030E002C03C
:100F300021E030E0C9012696E2E10C940618CF9337
:100F4000DF93EC011B828FEF9FEFAFEFBFEF8BA71B
:100F50009CA7ADA7BEA7CE010E94CA01892B11F0A4
:100F600084E041C0C25DDD4F988180E02A91CD527E
:100F7000D24030E0822B932B85559A4A11F083E0C2
:100F800032C08FA5893E21F08B3E11F0883E51F58D
:100F9000DE01AB59BF4FEDE1F1E08D91282F30E03C
:100FA0008191281B310981E0E032F80719F0232BE9
:100FB000A1F302C0232BA1F0DE01AF57BF4FE1E246
:100FC000F1E08D91282F30E08191281B310981E0DB
:100FD000E632F80719F0232BA1F304C0232B11F4F8
:100FE00080E001C082E0DF91CF910895ACE0B0E0F5
:100FF000ECEFF7E00C94EA177C01162F072F5887C7
:101000004F833A872987D9011D921C928B87FC86D2
:10101000BE016F5F7F4F0E9452011C01009709F0D3
:10102000C3C1F7018785282E33242114310409F028
:10103000BBC1868581FD04C077E0272E312CB4C169
:10104000D70150962D913D914D915C915397EF8131
:10105000F885CF01A0E0B0E0820F931FA41FB51F59
:1010600082179307A407B50728F4B9016095709516
:1010700078876F83812F902F9C013C832B83C7013E
:1010800082969E838D8384C1D70150962D913D9188
:101090004D915C915397DA01C9019170A070B070C5
:1010A0000097A105B10509F019C1DA01C90169E08C
:1010B000B695A795979587956A95D1F7E981FA81B5
:1010C000618472840894610871086822792261142D
:1010D000710409F04FC0211531054105510589F40E
:1010E000F70126813781408551852115310541055C
:1010F0005105D1F48B859C8540E050E060E070E0C4
:1011000009C0D70154964D915D916D917C9157978F
:101110008B859C850E94C9049B01AC0161157105FA
:101120008105910509F439C1213031054105510589
:1011300021F482E0F70187876EC02F3FFFEF3F0762
:10114000FFEF4F07FFEF5F0709F48CC0F701248B17
:10115000358B468B578B86819781A085B18500970B
:10116000A105B10539F4D70116962D933D934D9302
:101170005C931997F701868587FF1AC0E981FA8188
:10118000D70158962D913D914D915C915B9781814E
:101190006D817E8101E010E00E94C515892B09F068
:1011A0008FC0D7011E968C911E978F771E968C93B9
:1011B00049805A80F7012489358946895789225008
:1011C000304040405040F20183899489A589B68916
:1011D0000297A109B109281739074A075B07B8F434
:1011E00001851285B80180E090E00E94A9179B015B
:1011F000AC01F20187A190A5A1A5B2A5280F391FC6
:101200004A1F5B1F211531054105510541F482E05C
:10121000D7011F968C93B2E02B2E312CC5C0530101
:10122000CC24DD24A20EB31EC41ED51E8F8098844C
:10123000892C9924869481149104F1F0C401860DBF
:10124000971D0817190718F4480186189708F20126
:1012500081816B817C81A601950184010E94C51565
:10126000892B29F081E0D7011F968C932CC0840133
:10127000102F0027110F57C0F701808D918DA28D7F
:10128000B38D8A159B05AC05BD0509F1208931890F
:101290004289538982859385A485B58528173907A6
:1012A0004A075B07A0F4D20111968C916D817E8173
:1012B000A601950101E010E00E947615892B39F016
:1012C00081E0F7018787E1E02E2E312C6DC0D70138
:1012D0005896AD92BD92CD92DC925B97F701208932
:1012E000318942895389C901917060E072E0681BBD
:1012F000790B0F8118856017710708F48B01F901CC
:10130000F170B296EE0DFF1DAB81BC8198018D91FD
:10131000819321503040D9F7D7011E968C911E97AA
:1013200080681E968C93EF81F885E01BF10BF8879F
:10133000EF83A985BA858D919C911197800F911F9C
:101340008D939C93EB81FC81E00FF11FFC83EB8379
:10135000C801A0E0B0E0F7012089318942895389B2
:10136000820F931FA41FB51F808B918BA28BB38B11
:10137000228533854485558582179307A407B507D1
:1013800010F4DA01C901F70182879387A487B58732
:101390006F817885672B09F077CED7011E968C91E7
:1013A0001E9780641E968C93C1012C96E2E10C94EA
:1013B0000618ACE0B0E0EFEDF9E00C94EA174C0150
:1013C000162F072F58874F833A872987F9011182F3
:1013D00010828B879C86BE016F5F7F4F0E945201F7
:1013E0001C01009709F055C1F4018785282E33248C
:1013F0002114310409F04DC1868580FD04C087E0C9
:10140000282E312C46C1F40122853385448555852B
:1014100080899189A289B389281B390B4A0B5B0B00
:101420006F817885CB01A0E0B0E0281739074A0723
:101430005B0710F438872F83812F902F9C013C830A
:101440002B83C40182969E838D831EC1F401208963
:10145000318942895389DA01C9019170A070B07055
:101460000097A105B10509F0CDC0DA01C90119E065
:10147000B695A795979587951A95D1F7E981FA8141
:10148000018512850150104008231923011511050B
:1014900039F5211531054105510531F4F401668115
:1014A00077818085918509C0F401448955896689D1
:1014B00077898B859C850E940402623071058105C5
:1014C0009105E8F16F3FFFEF7F07FFEF8F07FFEF19
:1014D0009F0709F48BC0F401648B758B868B978B07
:1014E00049805A80F40124893589468957892250D8
:1014F000304040405040F20183899489A589B689E3
:101500000297A109B109281739074A075B07B8F400
:1015100061847284B30180E090E00E94A9179B016E
:10152000AC01F20187A190A5A1A5B2A5280F391F92
:101530004A1F5B1F211531054105510539F482E031
:10154000F4018787B2E02B2E312CA3C05801CC24A4
:10155000DD24A20EB31EC41ED51EEF80F884EF2C2E
:10156000FF24E694E114F104C9F0C701800F911F34
:101570006816790618F47301E01AF10AF201818104
:101580006B817C81A601950187010E947615892BCC
:1015900069F58701102F0027110F52C0F401208D2B
:1015A000318D428D538D2A153B054C055D0529F182
:1015B000868587FF0EC0F20181816D817E8101E009
:1015C00010E00E94C515892B89F4F40186858F7778
:1015D0008687E981FA8181816D817E81A6019501ED
:1015E00001E010E00E947615892B39F081E0F401CA
:1015F0008787E1E02E2E312C4CC0F401A08EB18EF5
:10160000C28ED38EF4012089318942895389C90160
:10161000917060E072E0681B790B0F81188560178C
:10162000710708F48B01F901F170B296E80DF91D0C
:10163000AB81BC81B80181918D9361507040D9F725
:101640008F819885801B910B98878F83E985FA8518
:1016500080819181800F911F918380836B817C8138
:10166000600F711F7C836B83980140E050E0F401B0
:1016700080899189A289B389820F931FA41FB51F06
:10168000808B918BA28BB38B6F817885672B09F050
:10169000DDCEC1012C96E2E10C940618A2E0B0E088
:1016A000E4E5FBE00C94F2175C01BE016F5F7F4F35
:1016B0000E9452016C01009709F0E9C0D5011E9605
:1016C0008C911E9786FFE3C087FF1AC0E981FA81DB
:1016D000B5016E5D7F4F58962D913D914D915C9176
:1016E0005B97818101E010E00E94C515892B21F0F4
:1016F00071E0C72ED12CCBC0F50186858F77868708
:10170000D5015C964D915D916D917C915F9789813A
:101710009A810E94CA016C01009709F0B8C0F501D6
:1017200000A111A1D8011B968C911B9780621B967A
:101730008C930190F081E02DD50116962D913D916D
:101740004D915C911997D8015A962C935A975B96B4
:101750003C938081833031F4CA01AA27BB27F8016A
:10176000848B958BD5011A964D915D916D917C91ED
:101770001D97C8014C960E94C200C801469640E0E1
:1017800050E061E27CE40E94C200F801128A138AF0
:10179000E980FA8081E0D70113968C93C7010E94FB
:1017A0007F016C01009709F06BC0F70180818330E5
:1017B00009F05AC08481813009F056C08701015D6B
:1017C0001F4FF80180E092E011920197E9F78DE256
:1017D00092E0E80EF91E85E5D7018D937D018AEA36
:1017E0008C93E2EDFDEFEE0EFF1EC80142E552E5DF
:1017F00061E671E40E94C200C7018D5E9D4F42E721
:1018000052E761E471E60E94C200D7011F964D9134
:101810005D916D917C915297C701895E9D4F0E94A9
:10182000C200F7014385548565857685C701855ECD
:101830009D4F0E94C200D7015B962D913D914D9125
:101840005C915E972F5F3F4F4F4F5F4FF70123A78C
:1018500034A745A756A78181B80101E010E00E9496
:10186000C515D70114961C92F701818160E040E014
:1018700050E00E942B16892B19F091E0C92ED12C33
:10188000D5011E968C911E978F7B1E968C93C60158
:101890002296EAE00C940E18A2E0B0E0E2E5FCE04B
:1018A0000C94F8178C010E944E0B9C01009761F478
:1018B000C801BE016F5F7F4F0E9452019C010097DB
:1018C00019F4F80111821082C9012296E4E00C9407
:1018D0001418A8E1B0E0EFE6FCE00C94EB176B0104
:1018E000B42EDB011D921C920E9408017C0197FF1F
:1018F00003C02BE030E0BAC2FC01EE0FFF1FEE5038
:10190000FE4F008111810115110519F42CE030E022
:10191000ADC2F601118300839EEFD92EDB20D801E2
:101920008C91882361F011968C910E94BA1480FDED
:1019300006C0DD2009F495C282FD90C292C2F80172
:101940001082E1828E2D0E94C11480FF03C023E02B
:1019500030E08CC2DD2011F082FD80C2C80140E081
:1019600050E060E070E00E949F07823029F01D8AFD
:101970001E8A1F8A188E54C06E010894C11CD11C87
:1019800056018EEBE82E81E0F82E2FE230E0E20ED9
:10199000F31EF801EE0DFF1D81ED9FEFE80EF91E1D
:1019A0008481882329F460E070E080E090E004C046
:1019B000CF0108960E949600D5016D937D938D937B
:1019C0009D935D01E0E1F0E0EE0EFF1EFEEFEF16ED
:1019D000F1E0FF06D1F6B1E1EB2EF12CEC0EFD1E8D
:1019E000D6018D919D910D90BC91A02D8D8B9E8BDC
:1019F000AF8BB88F0097A105B10511F483E009C042
:101A0000C8014D895E896F89788D0E949F07823059
:101A100078F0E4E0F0E0CE0EDF1ECE14DF0401F734
:101A2000843019F421E030E021C2823008F01CC279
:101A3000D801DB969C91DB9780E0DA962C9130E020
:101A4000822B932B8050924009F00EC20A5B1F4FED
:101A5000F801908180E0D8012E918D01055410404D
:101A600030E0822B932B2C016624772441145104FF
:101A70006104710439F4C8018D5A9F4F0E94960089
:101A80002B013C01F801478A508E618E728E37AC73
:101A90003282832D8150823008F0E6C184AD282F38
:101AA00030E0328721872115310509F4DDC1C901F4
:101AB000019782239323892B09F0D6C10F5B1F4F17
:101AC000D8019C9180E0F80122918F0100541040D0
:101AD000C22EDD24C82AD92AD8011896DC92CE92CB
:101AE0001797C6018F709070892B09F0BDC10D5BEF
:101AF0001F4FF801908180E0D8012E918D01025492
:101B0000104030E0822B932B4C01AA24BB2481147B
:101B10009104A104B10439F4C801815B9F4F0E9474
:101B200096004B015C01F80196AD80E025ADE22EF8
:101B3000FF24E82AF92AE114F10409F495C1232DC0
:101B400030E040E050E0C301B2010E94A917698B68
:101B50007A8B8B8B9C8B270166247724A4E0D69408
:101B6000C794AA95E1F7EE24FF24C40CD51CE61C0B
:101B7000F71CC60ED71EE81EF91E8C149D04AE0479
:101B8000BF0408F471C18C189D08AE08BF08D801C5
:101B900019962D913C911A9740E050E0C501B4018F
:101BA0000E94C817C901DA010097A105B10509F41F
:101BB0005BC1863FEFEF9E07EFEFAE07EFE0BE079A
:101BC00008F052C1863FFFEF9F07F0E0AF07F0E05B
:101BD000BF0718F0F3E03F2E0DC0863F2FE09207BD
:101BE00020E0A20720E0B20718F43324339402C0A7
:101BF000E2E03E2E72E0872E912CA12CB12C880EB3
:101C0000991EAA1EBB1ED80153968D929D92AD922D
:101C1000BC9256978D899E89AF89B88DF801838FC4
:101C2000948FA58FB68F9C01AD01240D351D461DE7
:101C3000571DD8015F962D933D934D935C939297DA
:101C40008D899E89AF89B88DC80ED91EEA1EFB1EEC
:101C5000D8019796CD92DD92ED92FC929A97B3E0DF
:101C60003B1661F5065A1F4FF801908180E0D801BC
:101C70002E918D010955104030E0822B932B892B3A
:101C800009F0F2C0F80187819085892B09F0ECC03A
:101C9000C801855A9F4F0E949600D80193966D9374
:101CA0007D938D939C939697A501940162E0220FFA
:101CB000331F441F551F6A95D1F737C0F80187813C
:101CC0009085892B09F4D0C089899A89AB89BC8910
:101CD000280F391F4A1F5B1FD80193962D933D9300
:101CE0004D935C939697D501C401880F991FAA1F45
:101CF000BB1FE2E03E1619F49C01AD0116C09C0129
:101D0000AD01280D391D4A1D5B1D56954795379528
:101D1000279581E090E0A0E0B0E088229922AA22F5
:101D2000BB22280D391D4A1D5B1D21503E4F4F4FD0
:101D30005F4FE9E05695479537952795EA95D1F796
:101D4000F8018789908DA18DB28D82179307A40722
:101D5000B50708F489C08FEF9FEFAFEFBFEF87871C
:101D6000908BA18BB28B83879487A587B68780E8F9
:101D70008483F3E03F1609F061C0005A1F4FD80179
:101D80009C9180E0F80122918F010F55104030E0C6
:101D9000822B932B019709F051C08D899E89AF89C1
:101DA000B88D0196A11DB11D8D8B9E8BAF8BB88F09
:101DB000C8014D895E896F89788D0E94CA01892B7F
:101DC00009F03CC0D80114961C92025D1D4FF80129
:101DD000908180E0D8012E918D010D52124030E0AB
:101DE000822B932B85559A4A49F5C8018F960E94FC
:101DF0009600625572458146914401F5C8018D5E99
:101E00009D4F0E9496006257724781449146B1F4FB
:101E1000C801895E9D4F0E949600D8011F966D9360
:101E20007D938D939C935297C801855E9D4F0E9430
:101E30009600F8016387748785879687D8013C925E
:101E40008091F4019091F50101969093F5018093B2
:101E5000F40116969C938E93159703C02AE030E008
:101E600005C020E030E002C02DE030E0C9016896F6
:101E7000E1E10C940718A9E3B0E0E1E4FFE00C9481
:101E8000EA171C017CA76BA7009721F469E0C62E16
:101E9000D12C51C34F734DA7CE018B96BE016F5FFE
:101EA0007F4F0E94690C009709F07BC3C980DA80DC
:101EB000DC82CB82EBA4FCA403C00894E11CF11CDF
:101EC000D7018C918F32C9F38C35B9F319861A86F4
:101ED0001B861C868C91803278F480E88AA7CE011C
:101EE000039640E050E060E070E00E94D8026C0190
:101EF000009709F4D4C0D8C05FE1852E912C8C0ED8
:101F00009D1E4AE2442E512C4C0E5D1E33E0632E82
:101F1000712C6C0E7D1EF401B0E2B193E415F50551
:101F2000D9F7A8E0B0E000E010E040E050E004C0E5
:101F3000ABE0B0E048E050E0F701E00FF11F208196
:101F40000F5F1F4F213208F441C02F3211F02C35A2
:101F500069F4F701E00FF11F03C00F5F1F4F3196C7
:101F600080818F32D1F38C35C1F330C02E3219F01D
:101F70004A175B0730F01B9709F40AC32E32C1F2EF
:101F800007C327FF07C0E22FF0E0EF77F070EA5CAD
:101F9000FE4F2081622F70E0E7E2F1E001C0319650
:101FA0008081882339F0992787FD909586179707B8
:101FB000B1F7EEC2822F81568A3108F42052F40123
:101FC000E40FF51F20834F5F5F4FB6CF452B09F419
:101FD000DFC28F8D853E11F4E5E0EF8F213210F0E6
:101FE00080E001C084E08AA7AB80BC80C30140E0F0
:101FF00050E060E070E00E94D802AC01009771F5FB
:10200000498D5A8D6B8D7C8DC5010E94CA01AC0132
:10201000009721F5ED8DFE8D8081882319F444E031
:1020200050E01CC083858F738F83838583FD10C030
:10203000DF01F4018D91282F30E08191281B3109B7
:10204000E415F50519F0232BA9F302C0232B31F079
:10205000C30160E070E00E94FA05CFCF8AA5411568
:10206000510539F06A0144305105F1F482FF8CC208
:102070001BC082FD14C08F8184FF86C2E00EF11E5A
:1020800069897A897170615D7F4F6C0D7D1DC60114
:102090000E94D90069877A878B879C873CCF8AA565
:1020A00087FD76C2CC24DD248DA5282F30E0C90120
:1020B0008C719070892B09F410C1C114D10409F4FA
:1020C0004FC094E0C916D10409F066C2EB80FC80D1
:1020D0008E010D5F1F4FC80140E050E060E070E0EE
:1020E0000E94D8026C010097D9F4498D5A8D6B8DEE
:1020F0007C8DC7010E94CA016C01009789F4ED8DA7
:10210000FE8DE081E53E09F44EC2EE2309F44BC298
:10211000C80161E070E00E94FA056C01009729F3A4
:10212000A4E0CA16D10409F037C226C2ED8DFE8D97
:1021300080E290E011920197E9F7AD8DBE8DFE012E
:102140007F969E01265D3F4F81918D93E217F307A5
:10215000D9F781E0F7018383FDA5F860FDA706C0EC
:102160008F81817109F008C222FDEAC18DA583FF2C
:10217000C3C00D8D1E8D89819A81B8010E94D9003E
:102180002B013C01C8010E9640E050E061E27CE486
:102190000E94C200ED8DFE8D80E28387E981FA8185
:1021A000AD8DBE8D5A961C925A975B961C925B978A
:1021B0008081833029F454961C92549755961C9232
:1021C0008D8D9E8D4C9640E050E060E070E00E9466
:1021D000C200E981FA8181E08383411451046104E2
:1021E000710409F489C0E981FA8183A594A5A5A5A4
:1021F000B6A588AB99ABAAABBBABEB80FC8092E0F9
:10220000491651046104710408F4BAC1F7018389C5
:102210009489A589B689481659066A067B0608F08E
:10222000AFC162018301CE010396A601B8010E94ED
:1022300004024B015C01611571058105910509F4EA
:1022400083C1613071058105910509F499C18FEF52
:1022500088168FEF98068FEFA8068FEFB80609F45F
:1022600061C1C701A601B80100E010E020E030E044
:102270000E94CF036C01009709F057C1D7011F9648
:102280002D913D914D915C91529753968D919D91D9
:102290000D90BC91A02D0297A109B109281739070B
:1022A0004A075B0760F42F5F3F4F4F4F5F4FF701C7
:1022B0002787308B418B528B848181608483F70127
:1022C00083899489A589B68988169906AA06BB06CA
:1022D00008F03AC164018501A6CFC114D10409F008
:1022E0005BC18F8184FF04C024E0C22ED12C1DC1AC
:1022F00021FF02C080FD40C1FDA5F3FF02C0F064D4
:10230000FDA7E980FA80F70183A594A5A5A5B6A548
:10231000F101848F958FA68FB78F0D8D1E8D11A320
:1023200000A3C701B8010E94D900D10116966D9390
:102330007D938D939C931997C8014C960E949600AB
:10234000F1016287738784879587F182E082D701E4
:1023500015968D919C91169793838283BDA5B68720
:102360001786108E118E128E138ED10150961D92EB
:102370001D921D921C925397B296FFA7EEA780E084
:1023800092E011920197E9F7FDA5F5FFD2C0D101C6
:102390001A962D913D914D915C911D972115310516
:1023A0004105510509F4C5C0F101208B318B428BE9
:1023B000538BE981FA81818592854C01AA24BB2443
:1023C00099E0880C991CAA1CBB1C9A95D1F716960B
:1023D000ED90FD900D911C91199729013A012CAABD
:1023E0003DAA88279927DC0188199909AA09BB0900
:1023F0008EAB9FABA8AFB9AF2BC08CA99DA9B8017C
:10240000A7010E9404027B018C0192E0E916F1040D
:102410000105110520F482E0C82ED12C02C0CC2485
:10242000DD24AFEFEA16AFEFFA06AFEF0A07AFEF22
:102430001A0719F4B1E0CB2ED12C8EA99FA9A8AD13
:10244000B9AD480E591E6A1E7B1EC114D10439F461
:1024500084149504A604B70480F2CC24DD24D101B1
:102460005496ED92FD920D931C935797C114D1048D
:1024700009F096C0D301C2019170A070B0700097AE
:10248000A105B10509F457C0A980BA808EEF9FEF6E
:10249000AFEFBFEFE80EF91E0A1F1B1FF50183897E
:1024A0009489A589B6890297A109B109E816F906A8
:1024B0000A071B0708F064C02185328540E050E020
:1024C000C801B7010E94A9177B018C01F50187A102
:1024D00090A5A1A5B2A5E80EF91E0A1F1B1FE114C5
:1024E000F1040105110509F44BC0A3019201A9E013
:1024F0005695479537952795AA95D1F72E0D3F1DEF
:10250000401F511FD10158962D933D934D935C93DD
:102510005B9781816EA57FA501E010E00E94761592
:10252000892B49F0E1E0CE2ED12CF10111821082ED
:1025300002C0CC24DD24C601E996E2E10C94061821
:1025400078E0C72ED12CF1CF89819A8148A959A969
:102550006AA97BA90E94CA016C01E981FA810894E9
:10256000410851086108710843865486658676865D
:10257000009709F4C1CED9CF67E0C62ED12CD5CFB4
:1025800052E0C52ED12CD1CF45E0C42ED12C8CCD1C
:1025900036E0C32ED12C88CDC114D10461F2C5CF51
:1025A000C6016C01C2CF498D5A8D6B8D7C8DC701E0
:1025B0000E94CA016C01009709F4B8CDEDCFA6E0E6
:1025C000B0E0E5EEF2E10C94F9179C838B837E83F7
:1025D0006D83142F7A836983CE0101960E940801CE
:1025E000DC0197FF03C02BE030E024C0FC01EE0FBC
:1025F000FF1FEE50FE4F0190F081E02D309709F063
:102600001082EB81FC81309709F01082AA0FBB1F6A
:10261000AE50BE4FED93FC93112319F420E030E04F
:1026200009C0CE010596BE016D5F7F4F40E00E945C
:10263000690C9C01C9012696E3E00C941518FC0175
:10264000819187FF02C0C19A01C0C198C29AC29805
:1026500086FF02C0C19A01C0C198C29AC29885FF84
:1026600002C0C19A01C0C198C29AC29884FF02C038
:10267000C19A01C0C198C29AC29883FF02C0C19A90
:1026800001C0C198C29AC29882FF02C0C19A01C01B
:10269000C198C29AC29881FF02C0C19A01C0C19874
:1026A000C29AC29880FF02C0C19A01C0C198C29A62
:1026B000C2986150704021F60895FC01C19A86B31A
:1026C0008170C29AC298880FB0998F5FC29AC298DF
:1026D000880FB0998F5FC29AC298880FB0998F5FA8
:1026E000C29AC298880FB0998F5FC29AC298880F19
:1026F000B0998F5FC29AC298880FB0998F5FC29AC3
:10270000C298880FB0998F5FC29AC2988083615037
:10271000704011F03196D3CF0895A1E0B0E0E3E925
:10272000F3E10C94F61708E813E17E010894E11C2C
:10273000F11CC70161E070E00E945D1389818F3F49
:1027400059F084E690E026B326B326B326B301976A
:10275000D1F70150104069F798010115110511F0EA
:1027600021E030E0C9012196E6E00C941218A1E0C6
:10277000B0E0EDEBF3E10C94FA17C39ACE010196A9
:1027800061E070E00E945D132196E2E00C9416185F
:10279000A1E0B0E0EEECF3E10C94FA17C398CE019F
:1027A000019661E070E00E945D130E948D13892BF9
:1027B00019F021E030E004C00E94B71320E030E0BF
:1027C000C9012196E2E00C941618A2E0B0E0EBEE0D
:1027D000F3E10C94F2177C016B0108EE13E05E014B
:1027E0000894A11CB11CC50161E070E00E945D135A
:1027F00089818F3F59F484E690E026B326B326B34F
:1028000026B30197D1F70150104069F789818E3FB7
:1028100019F020E030E00CC0C701B6010E945D1342
:10282000CE01019662E070E00E945D1321E030E08D
:10283000C9012296EAE00C940E18A2E0B0E0E3E2AF
:10284000F4E10C94F5177C01D62E0E948D13892B90
:1028500019F420E030E028C0D9828E010F5F1F4FAD
:10286000C80161E070E00E941F138DEFD81619F4C3
:1028700021E030E019C0C70160E072E00E941F1340
:10288000C80162E070E00E945D13C80161E070E081
:102890000E945D1390E089818F71853009F091E08D
:1028A00081E09827292F30E0C9012296E7E00C94B7
:1028B0001118A7E0B0E0EFE5F4E10C94F517D82E7D
:1028C0007A018B0187FF0CC087E340E050E060E0B5
:1028D00070E00E945914823008F048C08FE7D82277
:1028E0008CE0D81661F00E94B7130E94C813892BA0
:1028F00011F48FEF3BC0DD2011F425E906C088E01C
:10290000D81611F427E801C021E08D2D80648A8358
:10291000812F9927AA27BB278B83C801AA27BB270A
:102920008C83BB27A12F902F8F2D8D83EE822F8339
:10293000CE01029666E070E00E941F138CE0D8166C
:1029400031F4CE01019661E070E00E945D131AE05F
:102950007E010894E11CF11CC70161E070E00E9457
:102960005D13898187FF02C01150B1F72796E7E018
:102970000C941118882311F081E008958091B6011C
:102980000895A4E0B0E0E7ECF4E10C94F617882396
:1029900011F013E0A6C080E197E226B326B326B378
:1029A00026B30197D1F7BB9AC39ABA9AC298B99A3B
:1029B0001AE07E010894E11CF11CC70161E070E09F
:1029C0000E945D131150C9F780E040E050E060E0E4
:1029D00070E00E945914813009F078C088E04AEA1A
:1029E00051E060E070E00E945914813009F03DC070
:1029F000C70164E070E00E945D138B81813009F0B3
:102A000065C08C818A3A09F061C008EE13E089EA5A
:102A100040E050E060E070E40E945914882361F0C7
:102A200088EE93E026B326B326B326B30197D1F7F9
:102A30000150104061F74AC08AE340E050E060E096
:102A400070E00E945914882309F040C0CE0101961D
:102A500064E070E00E945D13898186FD03C074E02C
:102A6000F72E35C06CE0F62E32C089EA40E050E027
:102A700060E070E00E945914823028F0FF24F39443
:102A8000EE24E39404C052E0F52E49EAE42E08EE69
:102A900013E08E2D40E050E060E070E00E94591499
:102AA000882361F088EE93E026B326B326B326B3DD
:102AB0000197D1F70150104061F708C080E140E074
:102AC00052E060E070E00E9459148111FF24F092FE
:102AD000F60110E0FF2009F411E01093B6010E9406
:102AE000B713812F2496E6E00C941218FF920F93EF
:102AF0001F93CF93DF93EB01882311F081E002C095
:102B00008091B60180FF03C003E010E038C08091DF
:102B1000F60183FD07C0A9E0220F331F441F551F94
:102B2000AA95D1F70230110518F4F1E1FF2E02C089
:102B3000E2E1FE2E8F2DBA01A9010E9459148823CB
:102B4000B9F4CE0160E072E00E94E513892B31F008
:102B50000150104019F0C050DE4FF3CF82E1F8165B
:102B600039F48CE040E050E060E070E00E945914DD
:102B70000E94B7130115110511F001E010E0C80122
:102B8000CDB7DEB7E5E00C941318A0E0B0E0EBECB5
:102B9000F5E10C94F417EB0169017A01882311F037
:102BA00081E002C08091B60180FF03C003E010E025
:102BB0004CC08091F60190E083FD07C0B9E0CC0CD9
:102BC000DD1CEE1CFF1CBA95D1F70130110581F414
:102BD00088E1B701A6010E945914882379F5CE0136
:102BE0006EEF0E941D14892B49F100E010E026C011
:102BF00086709070892B31F0A80160E070E087E961
:102C00000E94591489E1B701A6010E945914882332
:102C1000A9F4CE016CEF0E941D14892B31F00150F4
:102C2000104019F0C050DE4FF4CF80E090E06DEF1F
:102C30000E941D14892B11F401E010E00E94B713CB
:102C40000115110511F001E010E0C801CDB7DEB7A4
:102C5000E8E00C941018A0E1B0E0E1E3F6E10C9498
:102C6000F8178A01882311F081E002C08091B60133
:102C700080FF03C003E010E090C0613071F061306C
:102C800030F0633009F47BC004E010E084C00E949F
:102C9000C813892B09F47DC041C089E040E050E0B1
:102CA00060E070E00E945914882309F072C0CE01E0
:102CB000019660E170E00E94E513892B09F469C078
:102CC00089818295869586958370288569857A8520
:102CD000813039F530E040E050E02F7330704070C3
:102CE0005070A901332722272F5F3F4F4F4F5F4F6F
:102CF000962F80E0870F911DA0E0B0E0280F391FCC
:102D00004A1F5B1F6AE0220F331F441F551F6A953D
:102D1000D1F7F801208331834283538300E010E030
:102D20003AC0629566956695637030E0220F331F56
:102D3000220F331F260F311D2F5F3F4F8F8190E0F1
:102D400083709070982F8827990F990F280F391F3B
:102D500040E050E08E818F706B85661F6627661F8E
:102D6000860F8E5F7370770F870F90E0099704C00E
:102D7000220F331F441F551F8A95D2F7CACF80E810
:102D800090E0A0E0B0E0F80180839183A283B38358
:102D9000C5CF01E010E00E94B713C8016096E4E0DF
:102DA0000C94141820E030E052E005C0452F4A95FD
:102DB000F1F72F5F3F4F28173907C0F3089520E040
:102DC00030E040ED57E005C0FA013197F1F72F5F91
:102DD0003F4F28173907C0F30895E4E6F0E08081FB
:102DE00082608083E5E6F0E08081826080830895E0
:102DF0008091650092E089278093650080E090E0F3
:102E000020ED37E0F9013197F1F7019641E0843F79
:102E10009407C1F708951F93182F8A3019F48DE095
:102E20000E940B175D9BFECF1CB980E090E01F91C4
:102E300008950F931F93BC015F9BFECF0CB1802FB1
:102E40000E940B17112707FD1095C8011F910F91C4
:102E500008951092900083E389B98AB188698AB98C
:102E6000E5E9F0E080818660808386ED91E09093D3
:102E70005B0680935A0684EE91E090935D06809302
:102E80005C0608951F920F920FB60F920BB60F9229
:102E900011242F933F934F935F936F937F938F935F
:102EA0009F93AF93BF93CF93DF93EF93FF9300D0A4
:102EB00000D087EB91E0EDB7FEB792838183CAE43F
:102EC000D6E0D483C3830E943C180F900F908AEB06
:102ED00091E0EDB7FEB7928381830E942A180F908C
:102EE0000F90CE016DEB71E00E942118009761F404
:102EF00000D082EC91E0EDB7FEB7928381830E940F
:102F00002A180F900F9010C000D000D08FEC91E0E5
:102F1000EDB7FEB792838183D483C3830E942A18BE
:102F20000F900F900F900F90FF91EF91DF91CF9145
:102F3000BF91AF919F918F917F916F915F914F91D1
:102F40003F912F910F900BBE0F900FBE0F901F90CF
:102F50001895629FD001739FF001829FE00DF11DD3
:102F6000649FE00DF11D929FF00D839FF00D749F03
:102F7000F00D659FF00D9927729FB00DE11DF91FAF
:102F8000639FB00DE11DF91FBD01CF01112408950C
:102F9000A1E21A2EAA1BBB1BFD010DC0AA1FBB1F5D
:102FA000EE1FFF1FA217B307E407F50720F0A21BCF
:102FB000B30BE40BF50B661F771F881F991F1A943C
:102FC00069F760957095809590959B01AC01BD0166
:102FD000CF0108952F923F924F925F926F927F920E
:102FE0008F929F92AF92BF92CF92DF92EF92FF9219
:102FF0000F931F93CF93DF93CDB7DEB7CA1BDB0BC5
:103000000FB6F894DEBF0FBECDBF09942A88398869
:1030100048885F846E847D848C849B84AA84B98470
:10302000C884DF80EE80FD800C811B81AA81B9817C
:10303000CE0FD11D0FB6F894DEBF0FBECDBFED0190
:103040000895FB01DC018D91019080190110D9F3E5
:10305000990B0895DF93CF93CDB7DEB7FE01359678
:103060006191719180915C0690915D06AF010E9423
:103070004E18CF91DF910895DF93CF93CDB7DEB790
:10308000FE0135966191719180915A0690915B068F
:10309000AF010E94031CCF91DF9108952F923F92C0
:1030A0004F925F926F927F928F929F92AF92BF9258
:1030B000CF92DF92EF92FF920F931F93DF93CF9304
:1030C000CDB7DEB72B970FB6F894DEBF0FBECDBFDE
:1030D0003C012B015A01FC0117821682838181FD7C
:1030E00003C06FEF7FEFC6C19AE0892E1E010894DE
:1030F000211C311CF3012381F20123FD859123FF63
:1031000081912F01882309F4B2C1853239F423FD5E
:10311000859123FF81912F01853229F490E0B3013D
:103120000E94911DE7CF982FFF24EE249924FFE100
:10313000FF15D0F09B3269F09C3228F4903259F0A0
:10314000933291F40EC09D3249F0903369F441E01E
:1031500024C052E0F52A84E0F82A28C098E0F92A31
:1031600025C0E0E1FE2A22C0F7FC29C0892F805348
:103170008A3070F4F6FE05C0989C902C1124980EAD
:1031800015C0E89CE02C1124E80EF0E2FF2A0EC0E6
:103190009E3229F4F6FC6BC140E4F42A07C09C3649
:1031A00019F450E8F52A02C0983649F4F20123FDDB
:1031B000959123FF91912F01992309F0B8CF892F81
:1031C0008554833018F08052833038F444E050E066
:1031D000A40EB51E5FE359830FC0933631F09337C9
:1031E00079F0933509F056C020C0F50180818983BC
:1031F00042E050E0A40EB51E610101E010E012C0F3
:10320000F501C080D180F6FC03C06FEF7FEF02C0F4
:10321000692D70E042E050E0A40EB51EC6010E9488
:10322000441D8C015FE7F52214C0F501C080D180F8
:10323000F6FC03C06FEF7FEF02C0692D70E042E043
:1032400050E0A40EB51EC6010E94391D8C0150E845
:10325000F52AF3FE07C01AC080E290E0B3010E9495
:10326000911DEA948E2D90E008171907A8F30EC05F
:10327000F601F7FC8591F7FE81916F0190E0B301B3
:103280000E94911DE110EA940150104001151105B2
:1032900079F7EAC0943611F0993669F5F7FE08C05F
:1032A000F501208131814281538184E090E00AC0A0
:1032B000F501808191819C01442737FD4095542F71
:1032C00082E090E0A80EB91E9FE6F92257FF09C0E0
:1032D00050954095309521953F4F4F4F5F4FE0E817
:1032E000FE2ACA01B901A1012AE030E00E94D71DDF
:1032F000D82ED21840C0953729F41F2D1F7E2AE002
:1033000030E01DC01F2D197F9F3661F0903720F4EB
:10331000983509F0ACC00FC0903739F0983709F0F4
:10332000A6C004C028E030E00AC0106114FD14609B
:1033300020E130E004C014FD166020E132E017FF08
:1033400008C0F501608171818281938144E050E081
:1033500008C0F50180819181BC0180E090E042E0ED
:1033600050E0A40EB51EA1010E94D71DD82ED21880
:103370008FE7F82EF122F6FE0BC05EEFF522D9148E
:1033800038F4F4FE07C0F2FC05C08FEEF82202C04C
:103390001D2D01C0192DF4FE0DC0FE01ED0DF11D16
:1033A0008081803319F499EEF92208C01F5FF2FE84
:1033B00005C003C08F2D867809F01F5F0F2DF3FC29
:1033C00014C0F0FE0FC01E1510F09D2C0BC09D2CDC
:1033D0009E0C911A1E2D06C080E290E0B3010E945F
:1033E000911D1F5F1E15C0F304C01E1510F4E11AD5
:1033F00001C0EE2404FF0FC080E390E0B3010E94FF
:10340000911D02FF1DC001FD03C088E790E00EC0C2
:1034100088E590E00BC0802F867891F001FF02C014
:103420008BE201C080E2F7FC8DE290E0B3010E94E4
:10343000911D06C080E390E0B3010E94911D9A9413
:10344000D914C0F3DA94F101ED0DF11D808190E003
:10345000B3010E94911DDD20A9F706C080E290E033
:10346000B3010E94911DEA94EE20C1F743CEF3010F
:1034700066817781CB012B960FB6F894DEBF0FBE25
:10348000CDBFCF91DF911F910F91FF90EF90DF9013
:10349000CF90BF90AF909F908F907F906F905F90F4
:1034A0004F903F902F900895FC0120FD08C023FD10
:1034B00005C022FF02C07383628351834083089555
:1034C000EF92FF920F931F9344FF02C033E011C0AD
:1034D00046FF02C034E00DC0DB01FC01AA0FBB1F98
:1034E000EE1FFF1F1094D1F76A0F7B1F8E1F9F1FC7
:1034F00031E0660F771F881F991F3150D1F77B018C
:103500008C01E20EF11C011D111DA8019701B701EC
:10351000CA011F910F91FF90EF9008950F931F9391
:10352000CF93DF938C01C8010E944F1DEC0197FDE2
:1035300008C00E94261D892BB1F7CE01B8010E9458
:10354000BD1DCE01DF91CF911F910F910895AF92D4
:10355000BF92CF92DF92EF92FF920F931F93CF9380
:10356000DF93EC01C62E5A01122F0E944F1DAC01B1
:103570008B3219F08D3251F41068CA9409F46DC081
:10358000CE010E944F1DAC0197FD67C06DEFD62E96
:10359000D1228D2D807301F54033F1F4CA9409F4E2
:1035A00047C0CE010E944F1DAC0197FD41C082E093
:1035B000D82A483711F0483559F480E4D82ACA94FB
:1035C000B9F1CE010E944F1DAC0199232CF430C0FB
:1035D000D6FC02C080E1D82AEE24FF248701242FE4
:1035E0002053283088F0D4FC09C02A3068F0D6FE79
:1035F00005C02F7D822F8151863028F0CA01BE017F
:103600000E94BD1D12C02750C801B7014D2D0E9458
:10361000601A7B018C0182E0D82ACA9461F0CE0145
:103620000E944F1DAC0197FFDACFD1FC04C015C03A
:10363000EE24FF248701D7FE08C010950095F09472
:10364000E094E11CF11C011D111DC501B801A70189
:103650002D2D0E94541A81E001C080E0DF91CF91AE
:103660001F910F91FF90EF90DF90CF90BF90AF90A0
:1036700008956F927F928F929F92AF92BF92CF9256
:10368000DF92EF92FF920F931F93DF93CF93CDB70B
:10369000DEB7A0970FB6F894DEBF0FBECDBF6C01AA
:1036A000A62E8A017901FE01319680E2DF011D928A
:1036B0008A95E9F770E030E060E040E050E04F01CB
:1036C000A1E0B0E0F6018381F70183FD259183FF3E
:1036D00021917F01222309F47EC02E3519F4411572
:1036E000510569F1872F90E08417950744F42D3533
:1036F00051F12D3221F4332329F431E021C0332359
:1037000009F4622F322F832F869586958695F401D2
:10371000E80FF11D832F87703D0102C0660C771CF6
:103720008A95E2F7208126292083361711F430E0AC
:1037300007C0361710F43F5FE6CF3150E4CF71E099
:103740004F5F5F4FBFCF332319F08E8180628E832E
:10375000772359F0FE0131969E012F5D3F4F808106
:1037600080958193E217F307D1F7BB24B3944E0100
:103770000894811C911CC6010E944F1DAC0197FD4D
:1037800022C0869586958695F401E80FF11D80810B
:1037900090E09A012770307002C0959587952A9520
:1037A000E2F780FD05C0CA01B6010E94BD1D0BC035
:1037B0000115110519F0D8014D938D01AA94BB2470
:1037C000AA20C9F602C0BB2031F40115110529F069
:1037D000F801108202C0EE24FF24C701A0960FB6A4
:1037E000F894DEBF0FBECDBFCF91DF911F910F9137
:1037F000FF90EF90DF90CF90BF90AF909F908F9011
:103800007F906F9008956F927F928F929F92AF9268
:10381000BF92CF92DF92EF92FF920F931F93CF93BD
:10382000DF935C016B013A01FC0117821682882448
:10383000EAC0812F90E00E94261D892B21F0C5014E
:103840000E948E1AE0C0153249F4F601F3FC65912E
:10385000F3FE61916F01653269F415E2C5010E94C2
:103860004F1D97FDDCC0181709F4CDC0B5010E94AB
:10387000BD1DDAC06A3219F0162F00E006C0F3FC55
:103880001591F3FE11916F0101E099240FC00260C0
:10389000692D70E080E090E040E20E94601A962E70
:1038A000F601F3FC1591F3FE11916F01212F2053C6
:1038B0002A3068F301FD03C099249A9403C099202B
:1038C00009F4B2C0183621F01C3699F4F6010BC089
:1038D000F601F3FC6591F3FE6191683619F06F0112
:1038E000162F07C008600460F3FC1591F3FE1191D8
:1038F0006F01112309F498C08CE890E0612F70E00B
:103900000E942E1D892B09F48FC0802F00FF03C059
:10391000EE24FF2407C0F301E080F18022E030E0D4
:10392000620E731E1E3651F4F5014681578160E028
:1039300070E0C701202F0E94541A65C0133691F41D
:1039400081FD02C099249394C5010E944F1D97FDEB
:1039500066C0E114F10419F0F70181937F019A9494
:1039600099F74FC01B3559F4C501692DA701960180
:103970000E94391B6C01009709F043C03DC0C5018E
:103980000E948E1A97FD4BC01F3659F1103728F44C
:10399000143629F1193639F527C0133719F01537C0
:1039A00011F51DC0C5010E944F1DEC0197FD11C00E
:1039B0000E94261D892B29F0CE01B5010E94BD1D54
:1039C00008C0E114F10419F0F701C1937F019A9442
:1039D00049F7E114F104A9F0F701108212C0006266
:1039E00003C0006101C00064C501692DA701202F3B
:1039F0000E94A71A882329F4F5018381807379F442
:103A000013C000FF8394F501F380F601F3FC1591D8
:103A1000F3FE11916F01112309F00BCF05C088202F
:103A200019F42FEF3FEF02C0282D30E0C901DF91DC
:103A3000CF911F910F91FF90EF90DF90CF90BF90AB
:103A4000AF909F908F907F906F90089591110DC1CE
:103A5000803219F089508550D0F70895FC01059007
:103A6000061621F00020D9F7C00108953197CF0143
:103A70000895FC010590615070400110D8F78095C1
:103A800090958E0F9F1F0895FC016150704001902A
:103A90000110D8F7809590958E0F9F1F0895CF93B2
:103AA000DF93EC014B8140FF1AC046FF0AC04F7BF9
:103AB0004B838E819F8101969F838E838A81282FDD
:103AC0002BC042FF13C0E881F9818081282F332762
:103AD00027FD30952115310529F440624B832FEFE6
:103AE0003FEF1BC03196F983E88311C0EA85FB855F
:103AF000CE0109959C0197FF0AC09B812F5F3F4F24
:103B000011F080E201C080E1892B8B83E8CF8E81A8
:103B10009F8101969F838E8330E0C901DF91CF9111
:103B200008950F931F93CF93DF938C01EB018B814B
:103B300081FF1BC082FF0DC02E813F818C819D8142
:103B40002817390764F4E881F9810193F983E88340
:103B500006C0E885F985802F0995892B31F48E817F
:103B60009F8101969F838E8302C00FEF1FEFC801D4
:103B7000DF91CF911F910F9108959C01FB018381EB
:103B800080FF11C086FD0FC09FEF2F3F390759F00E
:103B9000228380648F7D83838681978101979783B9
:103BA000868330E002C02FEF3FEFC9010895FA018C
:103BB000AA27283051F1203181F1E8946F936E7F6C
:103BC0006E5F7F4F8F4F9F4FAF4FB1E03ED0B4E05D
:103BD0003CD0670F781F891F9A1FA11D680F791F9E
:103BE0008A1F911DA11D6A0F711D811D911DA11DAF
:103BF00020D009F468943F912AE0269F11243019BF
:103C0000305D3193DEF6CF010895462F4770405D59
:103C10004193B3E00FD0C9F7F6CF462F4F70405D08
:103C20004A3318F0495D31FD4052419302D0A9F763
:103C3000EACFB4E0A6959795879577956795BA955D
:103C4000C9F700976105710508959B01AC010A2E23
:103C500006945795479537952795BA95C9F7620FFA
:103C6000731F841F951FA01D089599278827089505
:043C7000F894FFCFF6
:103C7400006E657766696C652E74787400497420EB
:103C8400776F726B73210D0A0052414D0046415407
:103C940000464154333200222A2B2C3A3B3C3D3E11
:103CA4003F5B5D7C7F00809A45418E418F80454516
:103CB400454949498E8F9092924F994F555559993C
:103CC4009A9B9C9D9E9F41494F55A5A5A6A7A8A92F
:103CD400AAABACADAEAFB0B1B2B3B4B5B6B7B8B9C8
:103CE400BABBBCBDBEBFC0C1C2C3C4C5C6C7C8C9B8
:103CF400CACBCCCDCECFD0D1D2D3D4D5D6D7D8D9A8
:103D0400DADBDCDDDEDFE0E1E2E3E4E5E6E7E8E997
:103D1400EAEBECEDEEEFF0F1F2F3F4F5F6F7F8F987
:103D2400FAFBFCFDFEFF012573000A0D00746573A8
:103D3400740073657269616C204F4B200A0D002575
:103D4400733F200A0D000000000100000000000085
:103D54001917000000000002000000000B1700000B
:023D640000005D
:00000001FF
